S00B00005350492E737265632D
S113000012C02CC02BC02AC029C028C027C026C0BB
S113001025C024C023C022C021C020C01FC01EC0D0
S11300201DC01CC01BC011241FBECFE5D4E0DEBF21
S1130030CDBF10E0A0E6B0E0E0EAF1E002C0059038
S11300400D92A836B107D9F720E0A8E6B0E001C0C8
S11300501D92A836B207E1F75FD0A0C0D1CF98B304
S11300609B7F98BB8FB9779BFECF6FB9779BFECFF1
S113007088B3846088BB089587B3846087BB88B3E2
S1130080846088BB87B3886087BB87B38F7E87BB58
S113009087B3806287BB8DB180618DB98EB1816079
S11300A08EB98DB180648DB987EA91E60197F1F735
S11300B000C0000061E08CE0D2DF60E089E0CFDFC7
S11300C06FE08AE0CCDF6FE08BE0C9DF60E08FE0B7
S11300D0C6DF0895CF93DF93C1E0D0E004C060E0B1
S11300E08C2FBDDF2196C930D105CCF3DF91CF91A0
S11300F00895CF93DF93C0E0D0E008C0FE01E05A3A
S1130100FF4F60818C2F8F5FAADF2196C830D10505
S1130110ACF3DF91CF910895AFDFDCDF0F2EF6E073
S1130120CF2ED12CF02D36C0C1E0D0E00E2C02C071
S1130130CC0FDD1F0A94E2F7F801E05AFF4F8081EB
S11301408C2B8083D6DF8BE49DE10197F1F700C00F
S113015000000C151D053CF4F801E05AFF4FC09552
S11301608081C823C083C5DF0F5F1F4F02C001E039
S113017010E007301105C4F29FEFE91AF90A03C031
S1130180EE24E394F12C87E0E816F10484F391E083
S1130190C91AD1081C141D049CF3C0CFF894FFCFD6
S10B01A0FF818181818181FF4F
S9030000FC
